{
  "contractName": "MyDeFiProject",
  "abi": [
    {
      "inputs": [
        {
          "internalType": "address",
          "name": "daiAddress",
          "type": "address"
        }
      ],
      "stateMutability": "nonpayable",
      "type": "constructor"
    },
    {
      "inputs": [
        {
          "internalType": "address",
          "name": "recipient",
          "type": "address"
        },
        {
          "internalType": "uint256",
          "name": "amount",
          "type": "uint256"
        }
      ],
      "name": "foo",
      "outputs": [],
      "stateMutability": "nonpayable",
      "type": "function"
    }
  ],
  "bytecode": "0x608060405234801561001057600080fd5b506040516102303803806102308339818101604052602081101561003357600080fd5b8101908080519060200190929190505050806000806101000a81548173ffffffffffffffffffffffffffffffffffffffff021916908373ffffffffffffffffffffffffffffffffffffffff1602179055505061019c806100946000396000f3fe608060405234801561001057600080fd5b506004361061002b5760003560e01c8063bd0d639f14610030575b600080fd5b61007c6004803603604081101561004657600080fd5b81019080803573ffffffffffffffffffffffffffffffffffffffff1690602001909291908035906020019092919050505061007e565b005b6000809054906101000a900473ffffffffffffffffffffffffffffffffffffffff1673ffffffffffffffffffffffffffffffffffffffff1663a9059cbb83836040518363ffffffff1660e01b8152600401808373ffffffffffffffffffffffffffffffffffffffff1673ffffffffffffffffffffffffffffffffffffffff16815260200182815260200192505050602060405180830381600087803b15801561012657600080fd5b505af115801561013a573d6000803e3d6000fd5b505050506040513d602081101561015057600080fd5b810190808051906020019092919050505050505056fea264697066735822122046b09796c11eccb2fff4681d394196dc70e41626299d28238a0709d80bce363464736f6c634300060b0033",
  "immutableReferences": {},
  "source": "// MyDeFiProject.sol\npragma solidity 0.6.11;\nimport '@openzeppelin/contracts/token/ERC20/IERC20.sol';\n \ncontract MyDeFiProject {\n IERC20 dai;\n \n constructor(address daiAddress) public {\n   // injecter l'address du token Dai à utiliser\n   dai = IERC20(daiAddress);\n }\n \n // fonction qui permet d'effectuer un transfer de dai vers le recipient\n function foo(address recipient, uint amount) external {\n   // quelques instructions\n   dai.transfer(recipient, amount);\n }\n}\n\n",
  "sourcePath": "/home/andrei/Alyra/Alyra_Blockchain_depot/Finance_Decentralise/contracts/MyDeFiProject.sol",
  "compiler": {
    "name": "solc",
    "version": "0.6.11+commit.5ef660b1.Emscripten.clang"
  },
  "schemaVersion": "3.3.1",
  "updatedAt": "2021-01-04T16:16:42.300Z",
  "networkType": "ethereum",
  "devdoc": {
    "kind": "dev",
    "methods": {},
    "version": 1
  },
  "userdoc": {
    "kind": "user",
    "methods": {},
    "version": 1
  }
}